:100000000C942A000C9447000C9447000C94470071
:100010000C9447000C9447000C9447000C94470044
:100020000C9447000C9447000C9447000C94470034
:100030000C9447000C9447000C9447000C94470024
:100040000C9447000C9447000C9447000C94470014
:100050000C94470011241FBECFE5D4E0DEBFCDBF16
:1000600010E0A0E6B0E0EAE3F4E002C005900D92F3
:10007000A43EB107D9F710E0A4EEB0E001C01D9294
:10008000AA3EB107E1F70E94D5000C941B020C9424
:100090000000282F207F28BBC298C39A20ED37E0AC
:1000A000F9013197F1F7C398F9013197F1F790E031
:1000B00044E0880F991F4A95E1F788BBC298C39A1C
:1000C000C9010197F1F7C398C9010197F1F70895A4
:1000D00082E090E00E94490088E290E00E9449009E
:1000E00086E090E00E9449008CE090E00E94490088
:1000F0000895282F207F28BBC29AC39A20ED37E0AD
:10010000F9013197F1F7C398F9013197F1F790E0D0
:1001100054E0880F991F5A95E1F788BBC29AC39A99
:10012000C9010197F1F7C398C9010197F1F7089543
:1001300081E00E94490080ED97E00197F1F7089572
:100140001F93CF93DF93EC0110E003C00E9479006E
:100150001F5FFE01E10FF11D80818823B9F7DF9158
:10016000CF911F910895CF93DF93EC0184E00E941B
:100170004900209791F480E30E9479000EC0CE01DF
:100180006AE070E00E940702805D0E947900CE0163
:100190006AE070E00E940702EB01209781F786E099
:1001A0000E944900DF91CF910895DF92EF92FF9274
:1001B0000F931F93CF93DF931092E5001092E4000A
:1001C0001092E7001092E6008FEF87BB11BA0E94F1
:1001D0006800C0E0D0E078EFD72E00E41CE960E2D0
:1001E000E62E6EE4F62ED2BA80E80E94490080E640
:1001F00090E00E94A00080B3887F883E79F40E943E
:10020000980080E80E9449008EE690E00E94A000DD
:10021000C8010197F1F70E949800219680B3887F6A
:10022000883DB9F40E94980080E80E9449008EE65B
:1002300090E00E94A000C8010197F1F70E94980089
:100240008091E4009091E50001969093E500809301
:10025000E40080B3887F883BB9F40E94980080E86E
:100260000E9449008EE690E00E94A000C80101971C
:10027000F1F70E9498008091E6009091E7000196C6
:100280009093E7008093E60080B3887F883709F079
:10029000A7C0CE010090E40002C0959587950A940E
:1002A000E2F7892BB1F0CE010090E60002C09595EF
:1002B00087950A94E2F7892B61F00E94980080E804
:1002C0000E9449008AE790E00E94A000C8010197BF
:1002D000F1F72091E4003091E500C9010C2E02C035
:1002E000959587950A94E2F7892BA9F00090E6008E
:1002F00002C0359527950A94E2F7232B61F00E94FE
:10030000980080E80E9449008AE890E00E94A000DE
:10031000C8010197F1F72091E6003091E700C9018B
:100320000C2E02C0959587950A94E2F7892BA9F0C7
:100330000090E40002C0359527950A94E2F7232B3C
:1003400061F00E94980080E80E9449008AE990E0EC
:100350000E94A000C8010197F1F78091E4009091FC
:10036000E500C817D90771F40E94980080E80E9440
:1003700049008AEA90E00E94A000C7010197F1F7C6
:100380000E9498008091E6009091E700C817D90775
:1003900071F40E94980080E80E9449008DEB90E083
:1003A0000E94A000C7010197F1F70E9498002091D8
:1003B000E4003091E5008091E6009091E700281775
:1003C000390771F40E94980080E80E94490080ED8E
:1003D00090E00E94A000C7010197F1F70E949800E9
:1003E00080B3887F803F59F41092E5001092E400BA
:1003F0001092E7001092E600C0E0D0E0F4CE80E872
:100400000E94490080E690E00E94A000ECCEAA1B6A
:10041000BB1B51E107C0AA1FBB1FA617B70710F0EF
:10042000A61BB70B881F991F5A95A9F78095909521
:0A043000BC01CD010895F894FFCF40
:10043A00707265737320616E79206B657900202074
:10044A007468616E6B20796F750020207061727418
:10045A007920312077696E732000202070617274D0
:10046A007920322077696E732000202070617274BF
:10047A007920332077696E73200070617274313D80
:10048A0070617274793220766F746573007061726C
:10049A0074313D70617274793320766F74657300BC
:1004AA0070617274323D70617274793320766F7440
:0404BA006573000066
:00000001FF
